:1000000002308A00CF2A00008E30F7002E08F80058
:100010002D08F900FA01F808031D18287908F800DE
:10002000F9010830F702F808031D1828F701202805
:100030000310F81B1F28F90DF80DF7031828F81303
:100040008A110A12382B31080319E828BD00350837
:100050000319E828BD02031C32287F30BD070318AE
:10006000E82838288130BD02031CE8280319E82855
:100070003D08F700F801F901FA01BC013208BB00A4
:10008000BB173308BA003408B9001930BD0038086E
:10009000B90203185B280130BA0203185B28BB02BF
:1000A00003185B28BC0203185B28BC0ABB0ABA0A07
:1000B0003808B9078D283708BA02031876280130A6
:1000C000BB0203187628BC0203187628BC0ABB0AB8
:1000D0003708BA073808B907031C8D28BA0A031D68
:1000E0008D28BB0A031D8D28BC0A8D283608803850
:1000F000BB0203188C280130BC0203188C28BC0AF0
:1001000036088038BB073708BA07031C6A28BB0AC1
:10011000031D6A28BC0A6A287A14BD0B90289B2804
:100120000310B90DBA0DBB0DBC0D0310FA0DF90D7E
:10013000F80DBE0D47283E1CA3280310F80CF90C3F
:10014000FA0CBE0CA628F7030319E828BE1BCF281B
:100150000310B90DBA0DBB0DBC0D3808B902031858
:10016000BB280130BA020318BB28BB020318BB2806
:10017000BC02031CDE283708BA020318C628013067
:10018000BB020318C628BC02031CDE2836088038D0
:10019000BB020318CF280130BC02031CDE28FA0A78
:1001A000031DDE28F90A031DDE28F80A031DDE28D8
:1001B000F70A0319E828F80CF90CFA0C3208BD000C
:1001C0003608BD06BD1FE628F817EC28F813EC2802
:1001D000F701F801F901FA0108003A0803195D294D
:1001E000C2003E0803195D29C2070318FE287F30AC
:1001F000C202031C5D2903195D2902298130C2074F
:1002000003185D294208F700F801F901FA013B08DB
:10021000C600C6173C08C5003D08C4001830C2001F
:10022000C301441C2B294108FA07031C1D29F90AA4
:10023000031D1D29F80A0319C3174008F907031CF9
:100240002429F80A0319C3173F08BC00BC173C084F
:10025000F8070318C317C30DF80CF90CFA0CC60CF9
:10026000C50CC40C0310C20B10290130F70703188A
:100270005D29F81B4229C60DFA0DF90DF80DF7039B
:1002800003195D29C61F5329FA0A031D5329F90AC8
:10029000031D5329F80A031D5329F80CF90CFA0C15
:1002A000F70A03195D293B08C3003F08C306C31FB3
:1002B0005B29F8176129F8136129F701F801F901A1
:1002C000FA01080083186729423084008313F7017C
:1002D000F801F901FA01C201C301C401C5014108D5
:1002E00040043F043E040319A5292030C600031032
:1002F000BA0DBB0DBC0DBD0DC20DC30DC40DC50D9A
:1003000041084502031D8E2940084402031D8E2921
:100310003F084302031D8E293E084202031C9F2909
:100320003E08C2023F08031C3F0FC3024008031CE3
:10033000400FC4024108031C410FC5020314F70D0E
:10034000F80DF90DFA0DC60B772942088000840AD2
:1003500043088000840A44088000840A450880001D
:1003600008000408B2003108B4000319D02930088D
:10037000BD002F08BC002E08BB002D08BA00C1012B
:10038000C0012030BF008230BE00ED207A08B000EE
:100390007908AF007808AE007708AD00B40BB72934
:1003A0003008BD002F08BC002E08BB002D08BA0085
:1003B0003A08B63CBA00FA013B08BE00BB1703106E
:1003C000BB0CBC0CBD0CFA0CF90CF80CF70CBA0BFE
:1003D000DF29BE1FF629F709F809F909FA09F70A12
:1003E0000319F80A0319F90A0319FA0A7A08B0007E
:1003F0007908AF007808AE007708AD00B01F0D2A6D
:10040000B203B216AD09AE09AF09B009AD0A0319BE
:10041000AE0A0319AF0A0319B00A3B30B9009A308B
:10042000B800CA30B700B6010A30B4003108031969
:10043000B20A83142D30840083133008BD002F08C6
:10044000BC002E08BB002D08BA003908C1003808CE
:10045000C0003708BF003608BE0062217808F708E0
:10046000031D452A310A34020319452A32080319AB
:10047000472A0F39340203193F2A03187B2AB21B7B
:100480007B2A321B472A2030762A2030B205B21E42
:10049000562AB2123108031DB2037708B2002D307C
:1004A0000C1E502A99003208F700B20131083402BC
:1004B000031D652A7708B2002E300C1E5D2A9900B4
:1004C0003208F7002030B20500303030B21E762AF4
:1004D000B2123108031DB2037708B2002D300C1E92
:1004E0006F2A99003208F700B2013030F707770819
:1004F0000C1E782A990083103908BD003808BC000A
:100500003708BB003608BA00C101C001BF010A307C
:10051000BE0062217A08B9007908B8007808B700EF
:100520007708B600B40B192A8A110A127C2B2E30D8
:100530008400831300080319AB2A0130F800F70187
:10054000F70BA02AF80B9F2A4A30F700F70BA62AD0
:10055000A92A800B9D2A8A110A12852B8E30F7005A
:100560002D08F7022E08F9002F08F800F917F708F0
:100570000319C52A0310F908031DC12AF808031935
:10058000C52AF90CF80CF70BBA2AAE1FCC2AF809C9
:10059000F909F80A0319F90A8A110A12BD2B03088E
:1005A0001F398300193083169900A63098009030C7
:1005B00083129800A901A801FF30AC0083161F1414
:1005C0009F141F159F1107309C00831385308312E1
:1005D0009000F930AA000130AB002B02F800780D32
:1005E000F700F70DF70DF830F7057708053892009A
:1005F0002A088316920083122C112C088316870078
:10060000831207110C30970083161F109F101F11C3
:100610009F111F1383121F179F1783169F13831297
:100620001F1483168610831286140330F700F70B0D
:10063000172B8316861083128610831606148312D6
:100640000618262B8E018F018E011D2B8316061492
:1006500083120618262B0F08FA000E08F7000F0861
:100660007A02031D2B2B7708AD007A08AE00042810
:100670007A08A7007908A6007808A5007708A400E2
:100680002708B4002608B3002508B2002408B100EA
:10069000B801B701B6018030B50023207A08B00058
:1006A0007908AF007808AE007708AD007A08BD0081
:1006B0007908BC007808BB007708BA002830C10070
:1006C0007E30C0000C30BF007A30BE00ED207A08CA
:1006D000A3007908A2007808A1007708A00089305B
:1006E00084002308B0002208AF002108AE002008D3
:1006F000AD000230B100B1290A300C1E7D2B9900EB
:100700000230AD00FA30AE00972AAD0B822B0030DC
:10071000F8001F08C73978049F002308BD0022088D
:10072000BC002108BB002008BA00C101C030C000D5
:100730007F30BF008830BE00ED207A08B000790815
:10074000AF007808AE007708AD007A08B4007908E9
:10075000B3007808B2007708B100B801B70148309B
:10076000B6008630B50023207A08B0007908AF00C3
:100770007808AE007708AD00AE2A7908A90078089D
:10078000A8002908F9002808F800F90CF80CF90C61
:10079000F80CF90C78089500F90C790C3039F70051
:0C07A0001708CF3977049700112B630075
:02400E00713F00
:00000001FF
;PIC16F877A
;CRC=0DB4  CREATED="13-dic.-21 16:25"
