:1000000002308A00CB2A00008E30F7003408F80056
:100010003308F900FA01F808031D18287908F800D8
:10002000F9010830F702F808031D1828F701202805
:100030000310F81B1F28F90DF80DF7031828F81303
:10004000080037080319E628C3003B080319E6280F
:10005000C302031C30287F30C3070318E628362864
:100060008130C302031CE6280319E6284308F70081
:10007000F801F901FA01C2013808C100C1173908B5
:10008000C0003A08BF001930C3003E08BF02031881
:1000900059280130C00203185928C10203185928F1
:1000A000C20203185928C20AC10AC00A3E08BF0783
:1000B0008B283D08C002031874280130C1020318C0
:1000C0007428C20203187428C20AC10A3D08C00776
:1000D0003E08BF07031C8B28C00A031D8B28C10ADA
:1000E000031D8B28C20A8B283C088038C1020318E4
:1000F0008A280130C20203188A28C20A3C088038C4
:10010000C1073D08C007031C6828C10A031D6828F1
:10011000C20A68287A14C30B8E2899280310BF0DD1
:10012000C00DC10DC20D0310FA0DF90DF80DC40D6F
:100130004528441CA1280310F80CF90CFA0CC40C37
:10014000A428F7030319E628C41BCD280310BF0D0C
:10015000C00DC10DC20D3E08BF020318B928013001
:10016000C0020318B928C1020318B928C202031C2F
:10017000DC283D08C0020318C4280130C10203185E
:10018000C428C202031CDC283C088038C1020318C2
:10019000CD280130C202031CDC28FA0A031DDC282A
:1001A000F90A031DDC28F80A031DDC28F70A0319E5
:1001B000E628F80CF90CFA0C3808C3003C08C30612
:1001C000C31FE428F817EA28F813EA28F701F80112
:1001D000F901FA010800400803195B29C800440826
:1001E00003195B29C8070318FC287F30C802031CC9
:1001F0005B2903195B2900298130C80703185B2993
:100200004808F700F801F901FA014108CC00CC17C1
:100210004208CB004308CA001830C800C9014A1C74
:1002200029294708FA07031C1B29F90A031D1B2962
:10023000F80A0319C9174608F907031C2229F80A06
:100240000319C9174508C200C2174208F807031866
:10025000C917C90DF80CF90CFA0CCC0CCB0CCA0C54
:100260000310C80B0E290130F70703185B29F81B90
:100270004029CC0DFA0DF90DF80DF70303195B2990
:10028000CC1F5129FA0A031D5129F90A031D5129CE
:10029000F80A031D5129F80CF90CFA0CF70A031996
:1002A0005B294108C9004508C906C91F5929F81723
:1002B0005F29F8135F29F701F801F901FA01080035
:1002C00083186529483084008313F701F801F90188
:1002D000FA01C801C901CA01CB0147084604450417
:1002E00044040319A3292030CC000310C00DC10D14
:1002F000C20DC30DC80DC90DCA0DCB0D47084B0269
:10030000031D8C2946084A02031D8C294508490211
:10031000031D8C2944084802031C9D294408C80277
:100320004508031C450FC9024608031C460FCA02B4
:100330004708031C470FCB020314F70DF80DF90D06
:10034000FA0DCC0B752948088000840A4908800002
:10035000840A4A088000840A4B08800008000408C8
:10036000B8003708BA000319CE293608C30035088B
:10037000C2003408C1003308C000C701C6012030E4
:10038000C5008230C400EB207A08B6007908B500B9
:100390007808B4007708B300BA0BB5293608C30053
:1003A0003508C2003408C1003308C0004008B63C1C
:1003B000C000FA014108C400C1170310C10CC20CEF
:1003C000C30CFA0CF90CF80CF70CC00BDD29C41F98
:1003D000F429F709F809F909FA09F70A0319F80ADB
:1003E0000319F90A0319FA0A7A08B6007908B50060
:1003F0007808B4007708B300B61F0B2AB803B81604
:10040000B309B409B509B609B30A0319B40A031943
:10041000B50A0319B60A3B30BF009A30BE00CA3095
:10042000BD00BC010A30BA0037080319B80A8314AA
:100430003330840083133608C3003508C200340803
:10044000C1003308C0003F08C7003E08C6003D0891
:10045000C5003C08C40060217808F708031D432A42
:10046000370A3A020319432A38080319452A0F3973
:100470003A0203193D2A0318792AB81B792A381B36
:10048000452A2030742A2030B805B81E542AB812E4
:100490003708031DB8037708B8002D300C1E4E2A0C
:1004A00099003808F700B80137083A02031D632A9B
:1004B0007708B8002E300C1E5B2A99003808F70028
:1004C0002030B80500303030B81E742AB812370812
:1004D000031DB8037708B8002D300C1E6D2A990053
:1004E0003808F700B8013030F70777080C1E762A75
:1004F000990083103F08C3003E08C2003D08C100B8
:100500003C08C000C701C601C5010A30C400602113
:100510007A08BF007908BE007808BD007708BC00E3
:10052000BA0B172A0800343084008313000803191B
:10053000A72A0130F800F701F70B9C2AF80B9B2A39
:100540004A30F700F70BA22AA52A800B992A8A11B4
:100550000A12D32B8E30F7003308F7023408F90063
:100560003508F800F917F7080319C12A0310F9082C
:10057000031DBD2AF8080319C12AF90CF80CF70B62
:10058000B62AB41FC82AF809F909F80A0319F90AA2
:100590008A110A120B2C03081F39830019308316A5
:1005A0009900A6309800903083129800A901A80104
:1005B000FF30AC0083161F149F141F159F110730C6
:1005C0009C008313853083129000F930AA0001301B
:1005D000AB002B02F800780DF700F70DF70DF8309F
:1005E000F7057708053892002A08831692008312CF
:1005F0002C112C0883168700831207110C309700EA
:1006000083161F109F141F159F151F1383121F178A
:100610009F1783169F1783121F1483168610831249
:1006200086140330F700F70B132B83168610831202
:1006300086108316061483120618222B8E018F0152
:100640008E01192B8316061483120618222B0F080D
:10065000FA000E08F7000F087A02031D272B77080F
:10066000B3007A08B40004207A08A7007908A6002D
:100670007808A5007708A4002708BA002608B90062
:100680002508B8002408B700BE01BD01BC018030B8
:10069000BB0021207A08B6007908B5007808B400BC
:1006A0007708B3007A08C3007908C2007808C1004F
:1006B0007708C0002830C7007E30C6000C30C50067
:1006C0007A30C400EB207A08A3007908A2007808E9
:1006D000A1007708A0001F151F196C2B83161E0898
:1006E0008312AD001E08AE002E08B4002D08B30022
:1006F00004207A08C3007908C2007808C10077088E
:10070000C000C701C6014830C5008530C400EB20D9
:100710007A08B6007908B5007808B4007708B30005
:100720007A08BA007908B9007808B8007708B700E5
:10073000BE01C030BD007F30BC008830BB0021202E
:100740007A08B2007908B1007808B0007708AF00E5
:100750000D300C1EA92B9900893084002308B600A7
:100760002208B5002108B4002008B3000230B70009
:10077000AF212C300C1EBA2B99008930840032082E
:10078000B6003108B5003008B4002F08B3000230BD
:10079000B700AF210A300C1ECB2B99000230B300FA
:1007A000FA30B400932AB30BD02B0030F8001F08A6
:1007B000C73978049F002308C3002208C20021081B
:1007C000C1002008C000C701C030C6007F30C5008E
:1007D0008830C400EB207A08B6007908B5007808A4
:1007E000B4007708B3007A08BA007908B90078082D
:1007F000B8007708B700BE01BD014830BC008630A4
:10080000BB0021207A08B6007908B5007808B4004A
:100810007708B300AA2A7908A9007808A80029084F
:10082000F9002808F800F90CF80CF90CF80CF90C90
:1008300078089500F90C790C3039F7001708CF3992
:08084000770497000D2B630003
:02400E00713F00
:00000001FF
;PIC16F877A
;CRC=1B16  CREATED="14-dic.-21 22:26"
