:1000000003308A00342B00000D22E939F430EE3140
:10001000E930BD12660500000D2AE9326D38EF1E89
:1000200025330A008E30F7002E08F8002D08F9005D
:10003000FA01F808031D26287908F800F9010830AC
:10004000F702F808031D2628F7012E280310F81BD5
:100050002D28F90DF80DF7032628F8138A110A1236
:100060009D2B31080319F628BD0035080319F62821
:10007000BD02031C40287F30BD070318F628462820
:100080008130BD02031CF6280319F6283D08F7004D
:10009000F801F901FA01BC013208BB00BB173308B3
:1000A000BA003408B9001930BD003808B902031885
:1000B00069280130BA0203186928BB0203186928AD
:1000C000BC0203186928BC0ABB0ABA0A3808B90777
:1000D0009B283708BA02031884280130BB02031892
:1000E0008428BC0203188428BC0ABB0A3708BA0754
:1000F0003808B907031C9B28BA0A031D9B28BB0AB2
:10010000031D9B28BC0A9B2836088038BB020318B5
:100110009A280130BC0203189A28BC0A3608803895
:10012000BB073708BA07031C7828BB0A031D7828C9
:10013000BC0A78287A14BD0B9E28A9280310B90D93
:10014000BA0DBB0DBC0D0310FA0DF90DF80DBE0D67
:1001500055283E1CB1280310F80CF90CFA0CBE0C03
:10016000B428F7030319F628BE1BDD280310B90DC8
:10017000BA0DBB0DBC0D3808B9020318C9280130EF
:10018000BA020318C928BB020318C928BC02031C01
:10019000EC283708BA020318D4280130BB02031830
:1001A000D428BC02031CEC2836088038BB02031894
:1001B000DD280130BC02031CEC28FA0A031DEC28E0
:1001C000F90A031DEC28F80A031DEC28F70A0319A5
:1001D000F628F80CF90CFA0C3208BD003608BD06FA
:1001E000BD1FF428F817FA28F813FA28F701F801C8
:1001F000F901FA0108003A0803196B29C2003E0808
:1002000003196B29C20703180C297F30C202031C93
:100210006B2903196B2910298130C20703186B2938
:100220004208F700F801F901FA013B08C600C617B9
:100230003C08C5003D08C4001830C200C301441C7E
:1002400039294108FA07031C2B29F90A031D2B2918
:10025000F80A0319C3174008F907031C3229F80AE2
:100260000319C3173F08BC00BC173C08F807031864
:10027000C317C30DF80CF90CFA0CC60CC50CC40C52
:100280000310C20B1E290130F70703186B29F81B56
:100290005029C60DFA0DF90DF80DF70303196B2956
:1002A000C61F6129FA0A031D6129F90A031D612984
:1002B000F80A031D6129F80CF90CFA0CF70A031966
:1002C0006B293B08C3003F08C306C31F6929F81701
:1002D0006F29F8136F29F701F801F901FA010800F5
:1002E0000B08AE008B13831603178C170C14000039
:1002F000000083120313AE1B8B170318A8290317E2
:100300000C087F390313AE0003170D080313AF0069
:1003100003170F080313B0002E080C1E8D29990037
:100320002F0803178D000313300803178F000313E2
:100330000B08B1008B13831603178C170C140000E5
:10034000000083120313B11B8B17AD0BA829C8291A
:1003500003170C0D0E0D7F390313AE0003170D08A4
:100360000313AF0003170F080313B0002E080C1E71
:10037000B72999002F0803178D00031330080317BE
:100380008F008D0A03198F0A03100313AD0B702918
:1003900008008318CE29423084008313F701F80146
:1003A000F901FA01C201C301C401C50141084004B9
:1003B0003F043E0403190C2A2030C6000310BA0D76
:1003C000BB0DBC0DBD0DC20DC30DC40DC50D410847
:1003D0004502031DF52940084402031DF5293F0885
:1003E0004302031DF5293E084202031C062A3E086B
:1003F000C2023F08031C3F0FC3024008031C400F0A
:10040000C4024108031C410FC5020314F70DF80D87
:10041000F90DFA0DC60BDE2942088000840A430854
:100420008000840A44088000840A4508800008008F
:100430000408B2003108B4000319372A3008BD009F
:100440002F08BC002E08BB002D08BA00C101C00156
:100450002030BF008230BE00FB207A08B00079084F
:10046000AF007808AE007708AD00B40B1E2A300844
:10047000BD002F08BC002E08BB002D08BA003A08AA
:10048000B63CBA00FA013B08BE00BB170310BB0C18
:10049000BC0CBD0CFA0CF90CF80CF70CBA0B462A84
:1004A000BE1F5D2AF709F809F909FA09F70A0319C5
:1004B000F80A0319F90A0319FA0A7A08B000790848
:1004C000AF007808AE007708AD00B01F742AB20301
:1004D000B216AD09AE09AF09B009AD0A0319AE0AEB
:1004E0000319AF0A0319B00A3B30B9009A30B800BB
:1004F000CA30B700B6010A30B40031080319B20A95
:1005000083142D30840083133008BD002F08BC00F5
:100510002E08BB002D08BA003908C1003808C000F9
:100520003708BF003608BE00C9217808F708031D48
:10053000AC2A310A34020319AC2A32080319AE2A54
:100540000F3934020319A62A0318E22AB21BE22A41
:10055000321BAE2A2030DD2A2030B205B21EBD2A61
:10056000B2123108031DB2037708B2002D300C1E01
:10057000B72A99003208F700B20131083402031D8E
:10058000CC2A7708B2002E300C1EC42A99003208FB
:10059000F7002030B20500303030B21EDD2AB21232
:1005A0003108031DB2037708B2002D300C1ED62A85
:1005B00099003208F700B2013030F70777080C1EB7
:1005C000DF2A990083103908BD003808BC003708BD
:1005D000BB003608BA00C101C001BF010A30BE002D
:1005E000C9217A08B9007908B8007808B7007708F7
:1005F000B600B40B802A08002E3084008313000854
:100600000319102B0130F800F701F70B052BF80B3D
:10061000042B4A30F700F70B0B2B0E2B800B022B11
:100620008A110A120F2C8E30F7002D08F7022E08BF
:10063000F9002F08F800F917F70803192A2B0310FF
:10064000F908031D262BF80803192A2BF90CF80CBE
:10065000F70B1F2BAE1F312BF809F909F80A031904
:10066000F90A8A110A12472C03081F39830019302E
:1006700083169900A6309800903083129800A90143
:10068000A801FF30AC0083161F149F141F159F1183
:1006900007309C008313853083129000F930AA0044
:1006A0000130AB002B02F800780DF700F70DF70DC5
:1006B000F830F7057708053892002A08831692006B
:1006C00083122C112C0883168700831207110C301B
:1006D000970083161F109F101F119F111F13831265
:1006E0001F179F1783169F1383121F1483168610DC
:1006F000831286140330F700F70B7C2B83168610C9
:100700008312861083160614831206188B2B8E0113
:100710008F018E01822B83160614831206188B2BF1
:100720000F08FA000E08F7000F087A02031D902B3D
:100730007708AD007A08AE0012287A08A700790879
:10074000A6007808A5007708A4002708B4002608AA
:10075000B3002508B2002408B100B801B701B60102
:100760008030B50031207A08B0007908AF007808F1
:10077000AE007708AD007A08BD007908BC007808A3
:10078000BB007708BA002830C1007E30C0000C30B2
:10079000BF007A30BE00FB207A08A3007908A200CF
:1007A0007808A1007708A000043003178D000030FE
:1007B0008F0003100B300313AD00702189308400CB
:1007C0002308B0002208AF002108AE002008AD00C9
:1007D0000230B10018220A300C1EEC2B99000C30AC
:1007E00003178D0000308F00031008300313AD0095
:1007F0007021893084002708B0002608AF00250842
:10080000AE002408AD000230B10018220A300C1EE0
:10081000072C99000230AD00FA30AE00FC2AAD0B77
:100820000C2C0030F8001F08C73978049F002308FB
:10083000BD002208BC002108BB002008BA00C1018D
:10084000C030C0007F30BF008830BE00FB207A0877
:10085000B0007908AF007808AE007708AD007A08DC
:10086000B4007908B3007808B2007708B100B80185
:10087000B7014830B6008630B50031207A08B000A4
:100880007908AF007808AE007708AD00132B79081F
:10089000A9007808A8002908F9002808F800F90C30
:1008A000F80CF90CF80CF90C78089500F90C790C97
:1008B0003039F7001708CF3977049700762B63009B
:02400E00713F00
:00000001FF
;PIC16F877A
;CRC=F057  CREATED="25-nov.-21 23:27"
